:020000040800F2
:100000004004002045010008410B0008570A000881
:100010005B0A0008E907000803140008000000005C
:10002000000000000000000000000000690D000852
:100030006908000800000000430B0008550E000886
:100040005F0100085F0100085F0100085F01000810
:100050005F0100085F0100085F0100085F01000800
:100060005F0100085F0100085F0100085F010008F0
:100070005F0100085F0100085F0100085F010008E0
:100080005F0100085F0100085F0100085F010008D0
:100090005F0100085F0100085F0100085F010008C0
:1000A0005F0100085F0100085F0100085F010008B0
:1000B0005F0100085F0100085F0100085F010008A0
:1000C0005F0100085F0100085F0100085F01000890
:1000D0005F0100085F0100085F0100085F01000880
:1000E0005F0100085F0100085F0100085F01000870
:1000F0005F0100085F0100085F0100085F01000860
:100100005F0100085F0100085F0100085F0100084F
:100110005F0100085F0100085F0100085F0100083F
:100120005F0100085F0100085F0100085F0100082F
:10013000DFF80CD000F06CF900480047CD1900083A
:10014000400400200648804706480047FEE7FEE7D7
:10015000FEE7FEE7FEE7FEE7FEE7FEE7FEE7FEE777
:10016000D90E0008310100080FB400B589B00BA802
:1001700000906A4603480A9900F040F909B05DF81A
:1001800014FB0000340000202DE9FF5F1D464FF0F6
:10019000FF3BD5E9014691465F464FF00008A9694B
:1001A0007F1C01988847296A824688470028F6D133
:1001B000BAF1FF3F0CD024F4C064002E19DD6006B4
:1001C00014D5BAF12B0F09D0BAF12D0F0ED103E0DF
:1001D000584604B0BDE8F09F44F48064A9697F1CD0
:1001E00001988847761E8246002E02DDBAF1300F54
:1001F00003D0B9F1000F26D032E0A969761E44F48D
:1002000000747F1C019888478246002E05DDBAF1F4
:10021000780F06D0BAF1580F03D0B9F1000F10D003
:100220001EE0B9F1000F02D0B9F1100F18D1A96981
:10023000761E24F400747F1C0198884782461020A3
:1002400002E0082000E00A20814609E008FB0908D6
:10025000A969761E44F400747F1C01988847824681
:10026000002E05DD4946504600F0BAF80028EDDAC8
:10027000E96901988847A00502D46FF00100A8E75A
:10028000E00725D1600613D5600502D5C8F100004E
:1002900000E0404629680A1D2A600968220501D548
:1002A000087015E0220701D5088011E008600FE012
:1002B0002868011D29600068210502D580F80080AA
:1002C00006E0210702D5A0F8008001E0C0F8008018
:1002D00038467EE72DE9FF5FD2E901A74FF000081D
:1002E000916999461446DDF838B04646019888472A
:1002F000054659EA0B0005D009E0A169761C019872
:1003000088470546216A284688470028F5D1681C99
:1003100003D05FEACA7005D015E04FF0FF3004B09B
:10032000BDE8F09F2068011D2160D0F800800AE040
:100330005FEACA7001D108F8015BA169761C7F1ED3
:10034000019888470546002F1ADD681C18D0B9F1BE
:10035000000F0DD0E81705EBD060421120F01F0010
:1003600059F822102A1A012090400142E0D107E0FA
:10037000BBF1000FDCD1216A284688470028D7D07E
:10038000E16901988847BBF1000F07D1002E05DD18
:100390005FEACA7002D1002188F80010A068B84254
:1003A00003DDBBF1000F03D017B16FF00100B6E71A
:1003B0003046B4E730B50B46014600202022012428
:1003C00009E021FA02F59D4205D303FA02F5491B23
:1003D00004FA02F52844151EA2F10102F1DC30BD39
:1003E0003A2800D2303820F02002412A01D3A2F16D
:1003F0003700884201D34FF0FF307047024B9361C2
:10040000024BD36100F032B84119000851040008D2
:10041000064C074D06E0E06840F0010394E8070051
:1004200098471034AC42F6D3FFF786FEE41C000870
:10043000041D0008094910B508784C1C18B1401E6D
:100440000870205C10BD00210720ABBE207010BDDD
:1004500002490878421C0A70704700003C000020E6
:10046000026811441378016018467047D16004494E
:1004700051610449116200211161114600F00AB86E
:100480006104000889040008C0B24FF4F05100F084
:1004900097B900002DE9F34F8BB04FF0000801F140
:1004A0000C000C464FF0010B46460DF1080A019076
:1004B0006269012101989047051E2DD0252D2CD071
:1004C000216A8847C0B16269012101989047216A79
:1004D00088470028F7D1411E62690198904700E0E3
:1004E000761CA1690B988847216A88470028F7D1B4
:1004F000E1690B988847DBE7A1690B9888470746B5
:10050000A84201D1761CD3E7E1690B9888477F1C8C
:1005100002D1B8F1000F6FD046E1002762693D4675
:100520003946019890472A2804D16269012101982F
:1005300090470125DFF88492626901210198904774
:10054000A0F130010A290AD24F45E5DC07EB87010B
:1005500000EB4107303FDFD445F01005ECE7E9063A
:1005600001D46FF000476C280AD04C2814D06828BA
:1005700015D06A280DD074281CD07A281AD01DE016
:1005800062690121019890476C2802D045F004056A
:1005900014E045F002050DE045F020050AE062692F
:1005A000012101989047682802D045F0080505E030
:1005B00045F400656269012101989047C4E901573B
:1005C00065283DD019DC58287AD00CDC452837D076
:1005D00004DC252826D0412831D131E046282FD00F
:1005E00047282CD12CE05B2877D0612828D06328BD
:1005F0007CD0642823D15AE0D0E06F2848D008DCB2
:1006000066281DD067281BD0692821D06E2816D1F6
:1006100027E0702845D0732868D0752847D07828FF
:100620000DD14DE0A1690B988847054625283FF478
:1006300069AFE1690B9888476D1C3FF46AAFB3E07E
:1006400023466A466FF001000B99AFF300809EE0ED
:1006500045F040006060A80723464FF0000236D402
:100660003EE0E8077FF447AF2068011D2160006885
:10067000290501D506701BE7290701D5068017E774
:10068000A90703D5F117C0E9006111E706600FE77C
:1006900045F040006060A80723464FF0080216D4DA
:1006A0001EE040F60E0125EA0100606016E045F00C
:1006B00040006060A80723464FF00A0207D40FE00D
:1006C00045F040006060A80708D5234610226FF06F
:1006D00001000B99AFF3008059E007E02346102298
:1006E0006FF001000B99FFF74FFD50E04FF000094C
:1006F0004F464B46632802D05B2806D040E0E80610
:1007000001D40120A06001273AE06269012101982B
:1007100090475E2805D14FF001096269494601986A
:100720009047216939B900210A46534643F82120F0
:10073000491C0829FADBB0B3216969B9C11700EB7C
:10074000D16253110AEB830122F01F02821A0120A9
:100750000B68904003430B60626901210198904748
:100760005D28E8D1B9F1000F09D00020514651F8B9
:100770002020D24341F82020401C0828F7DB02ABA0
:10078000224600976FF001000B99FFF7A3FD0028A8
:100790000CDA401C08D1BBF1000F05D04FF0FF3040
:1007A0000DB0BDE8F08FFFE74046F9E7E90701D15A
:1007B00008F1010806444FF0000B79E6CCCCCC0CD4
:1007C0007F2801D9002208E0064A02EB5002C00748
:1007D000127800D1120902F00F0201209040084067
:1007E00070470000A41C000800BFFEE708B5012107
:1007F000082000F0B7F94FF48060ADF80000102039
:100800008DF8030003208DF802006946044800F0CB
:1008100041F84FF48061024800F01BF908BD000068
:10082000000C014008B54FF48060ADF8000048208E
:100830008DF803006946024800F02CF808BD00005E
:10084000000C014008B54FF48060ADF800001020A6
:100850008DF8030003208DF802006946014800F07E
:1008600019F808BD000C01407047000001B50849A7
:10087000009808604FF0E020006940F001004FF060
:10088000E021086100BF024800680028FBD108BDD4
:10089000300000202DE9F04102460025002600200E
:1008A00000230024002791F803C00CF00F0591F8F5
:1008B00003C00CF0100CBCF1000F03D091F802C083
:1008C0004CEA050591F800C0BCF1000F31D0146866
:1008D00000202BE04FF0010C0CFA00F3B1F800C03F
:1008E0000CEA03069E4220D183004FF00F0C0CFA55
:1008F00003F7BC4305FA03FC4CEA040491F803C077
:10090000BCF1280F06D14FF0010C0CFA00FCC2F824
:1009100014C00AE091F803C0BCF1480F05D14FF0B4
:10092000010C0CFA00FCC2F810C0401C0828D1D3FE
:100930001460B1F800C0BCF1FF0F34DD5468002032
:100940002EE000F1080C4FF0010808FA0CF3B1F8A2
:1009500000C00CEA03069E4221D183004FF00F0C29
:100960000CFA03F7BC4305FA03FC4CEA040491F8C3
:1009700003C0BCF1280F05D100F1080C08FA0CF8EF
:10098000C2F8148091F803C0BCF1480F07D100F100
:10099000080C4FF0010808FA0CF8C2F81080401C4F
:1009A0000828CED35460BDE8F0810000F0B50A46B7
:1009B000002300240021002500F00046B6F1004F7E
:1009C00002D11D4EF16901E01B4E7168C0F3034571
:1009D00083B200F44016B6F5401F08D121F07061D3
:1009E000154E766826F07066134F7E6012E000F4B4
:1009F0008016B6F5801F06D1032606FA05F4A1433A
:100A000041F0706106E0460D360103FA06F6B14387
:100A100041F0706122B1460D360103FA06F631430A
:100A200000F00046B6F1004F02D1034EF16101E043
:100A3000014E7160F0BD0000000001400246002040
:100A400093680B400BB1012000E00020704741612A
:100A500070470161704700BFFEE700BFFEE700007E
:100A600010B50446932142F20F7000F0ADFA002158
:100A70000F4800F098FB932142F20F7000F0E6FA65
:100A8000012C05D140F2BB210A4800F08CFB0EE09E
:100A9000022C05D140F23F61064800F084FB06E0DD
:100AA000032C04D140F6C311024800F07CFB10BDBA
:100AB00000080040000C004010B50446932142F2AB
:100AC0000F7000F081FA012C05D140F2BB210E48D5
:100AD00000F069FB0EE0022C05D140F213510A48E8
:100AE00000F061FB06E0032C04D140F2CF71064810
:100AF00000F059FB932142F20F7000F0A7FA002199
:100B0000024800F050FB10BD00080040000C0040FF
:100B100010B5932142F20F7000F056FA00210648FA
:100B200000F041FB932142F20F7000F08FFA002198
:100B3000024800F038FB10BD00080040000C0040E7
:100B40007047704729B1064AD2690243044BDA6103
:100B500004E0034AD2698243014BDA617047000026
:100B60000010024029B1064A92690243044B9A617F
:100B700004E0034A92698243014B9A617047000086
:100B80000010024030B500210022002400232D4D2A
:100B90006D6805F00C0121B1042905D0082923D185
:100BA00005E0294D056022E0274D05601FE0254D39
:100BB0006D6805F47012234D6D6805F480340225CC
:100BC00005EB92421CB9214D554305600BE01D4DCC
:100BD0006D6805F400351DB11C4D5543056002E0FC
:100BE000194D5543056002E0174D056000BF00BF79
:100BF000144D6D6805F0F0010909154D6B5C056831
:100C0000DD4045600F4D6D6805F4E061090A104D47
:100C10006B5C4568DD4085600A4D6D6805F4605188
:100C2000C90A0B4D6B5C4568DD40C560054D6D68BC
:100C300005F44041890B074D6B5CC568B5FBF3F5C6
:100C4000056130BD0010024000127A0000093D002D
:100C5000140000202400002070B50025002427E0A7
:100C600000BF4FF480611448FFF7E8FE0028F8D079
:100C70002820FFF7FBFD4FF480610F48FFF7DEFEF1
:100C800001280ED100BF4FF480610B48FFF7D6FE5C
:100C90000128F8D0C4F1070101208840C0B2054303
:100CA00004E0C4F10701012088408543601CC4B200
:100CB000082CD5DB284670BD000C014010B5044659
:100CC000FFF7C0FD4FF480612648FFF7C0FE44F2F5
:100CD0005060FFF7CBFD4FF480612248FFF7B9FE6B
:100CE0001E20FFF7C3FDFFF79DFD4FF480611D48F7
:100CF000FFF7A4FE88BB00BF4FF480611948FFF7DF
:100D00009DFE0028F8D000BF4FF480611548FFF722
:100D100095FE0128F8D0FFF79FFF2070FFF79CFF9A
:100D20006070FFF799FFA070FFF796FFE070FFF784
:100D300093FF2071FFF786FD4FF480610948FFF7AC
:100D400088FE207861780844A1780844E178084456
:100D50002179884202D1012010BD01E00020FBE78B
:100D60000020F9E7000C0140704710B500F002F8D0
:100D700010BD00000CB500200190009033480068C1
:100D800040F480303149086000BF3048006800F40A
:100D9000003000900198401C0190009818B901980B
:100DA000B0F5A06FF1D12948006800F4003010B10F
:100DB0000120009001E0002000900098012843D11C
:100DC0002348006840F01000214908600846006888
:100DD00020F0030008600846006840F00200086048
:100DE0001A48406819494860084640684860084603
:100DF000406840F4806048600846406820F47C10F9
:100E000048600846406840F4E810486008460068BA
:100E100040F08070086000BF0C48006800F000706F
:100E20000028F9D00948406820F0030007494860CD
:100E30000846406840F00200486000BF0348406830
:100E400000F00C000828F9D10CBD00000010024091
:100E50000020024010B500F0FBF910BD30B51A4873
:100E600000681A4AB0FBF2F1B1F1807F01D3012092
:100E70001DE021F07F40401E4FF0E02250615017EE
:100E80000F22002807DA13071D0E114B00F00F0484
:100E9000241F1D5503E013071C0E0E4B1C5400BFEE
:100EA00000204FF0E022906107201061002008B17F
:100EB00000BFFEE74FF0E020006920F001004FF096
:100EC000E021086130BD00000000002040420F001A
:100ED00018ED00E000E400E010B51348006840F0B1
:100EE00001001149086008464068104908400E4951
:100EF0004860084600680E4908400B4908600846EB
:100F0000006820F4802008600846406820F4FE0055
:100F100048604FF41F008860FFF727FF4FF0006024
:100F20000449086010BD0000001002400000FFF8F6
:100F3000FFFFF6FE08ED00E030B589B005460C462F
:100F400001210920FFF70EFE01211C48FFF72EFDAD
:100F50002020ADF8200018208DF8230003208DF804
:100F6000220008A91648FFF795FC01210220FFF78F
:100F7000E9FDADF81850ADF814400020ADF81A00A6
:100F8000ADF8160005A90F4800F010F97020ADF873
:100F900004000120ADF806000220ADF80C0001A904
:100FA000084800F0A1F80821064800F0EFF80121F8
:100FB000044800F08DF809B030BD000000081A00A8
:100FC000000C01400004004030B589B005460C46D5
:100FD00001210920FFF7C6FD8020ADF82000182070
:100FE0008DF8230003208DF8220008A91548FFF78B
:100FF00051FC01210420FFF7A5FDADF81850ADF814
:1010000014400020ADF81A00ADF8160005A90E48EE
:1010100000F0CCF87020ADF804000120ADF8060017
:101020000220ADF80C0001A9074800F05DF8082186
:10103000054800F0ABF80121034800F049F809B079
:1010400030BD0000000C01400008004030B589B000
:1010500005460C4601210920FFF784FD0220ADF86A
:10106000200018208DF8230003208DF8220008A905
:101070001548FFF70FFC01210820FFF763FDADF8CD
:101080001850ADF814400020ADF81A00ADF8160065
:1010900005A90E4800F08AF87020ADF80400012080
:1010A000ADF806000220ADF80C0001A9074800F0D9
:1010B0001BF80821054800F069F80121034800F0F9
:1010C00007F809B030BD000000080140000C0040E6
:1010D00021B1028842F00102028004E002884FF64A
:1010E000FE731A400280704770B50024002200236E
:1010F000058C4FF6EF7635400584028C8388048B8F
:1011000048F6FF752C404FF6FF452C400D884FF6F2
:10111000FF7606EA05252C434FF6DF752A400D8938
:1011200006EA05152A434D8806EA05152A43154D9A
:10113000A84202D0144DA8421DD14FF67F752A4017
:101140004D894FF6FF7606EA05152A434FF6BF751F
:101150002A408D8806EA05152A434FF6FF352B40B5
:101160004FF2FF752B408D8906EA85052B43CD890B
:1011700006EA85052B4383800483CD880587028496
:1011800070BD0000002C0140003401400A460021DF
:10119000018B4FF2FF7319404FF6FF7303EA0223EE
:1011A00019430183704701877047000000220288BD
:1011B0001D4B98420ED01D4B98420BD0B0F1804F82
:1011C00008D01B4B984205D01A4B984202D01A4BBC
:1011D000984204D14FF68F731A404B881A43174B2D
:1011E000984207D0164B984204D04FF6FF431A405E
:1011F000CB881A4302808B8883850B8803850A4B32
:1012000098420BD0094B984208D00E4B984205D01B
:101210000D4B984202D00D4B984201D10B7A0386B8
:101220000123838270470000002C014000340140FC
:101230000004004000080040000C00400010004086
:1012400000140040004001400044014000480140BB
:101250000448006820B103480068401E0149086046
:10126000704700003000002000B585B0012144F235
:101270000400FFF777FC4FF40070ADF81000182061
:101280008DF8130003208DF8120004A91348FFF70E
:1012900001FB4FF48060ADF8100004208DF81300BE
:1012A00004A90E48FFF7F6FA4FF4165000900020FC
:1012B000ADF80400ADF80600ADF80800ADF80C007C
:1012C0000C20ADF80A006946054800F025F8012118
:1012D000034800F007F805B000BD00000008014019
:1012E0000038014021B1828942F40052828104E039
:1012F00082894DF6FF731A408281704702460020B2
:10130000B1F5007F00D100BF13880B400BB1012065
:1013100000E00020704700002DE9F04786B0054648
:101320000E460024A24600BFA1460027B08900B1A6
:1013300000BF2F462C8A4CF6FF700440F08804430F
:101340002C82AC894EF6F3100440B08831890843F2
:10135000718908430443AC81AC8A4FF6FF400440D6
:10136000B0890443AC8201A8FFF70CFC1F488742F8
:1013700002D1DDF810A001E0DDF80CA0A88900F48E
:10138000004040B10AEBCA0000EB0A103168490086
:10139000B0FBF1F807E00AEBCA0000EB0A10316875
:1013A0008900B0FBF1F86420B8FBF0F004012009DB
:1013B000642101FB1089A88900F4004040B132206B
:1013C00000EBC900B0FBF1F000F00700044308E0B7
:1013D000322000EB09106421B0FBF1F000F00F00A7
:1013E00004432C8106B0BDE8F087000000380140BE
:1013F00001468888C0F308007047C1F30802828064
:10140000704700BFFEE700000FB4054B10B503A9FD
:10141000044A029800F018F810BC5DF814FB0000B4
:10142000611900083800002002E008C8121F08C136
:10143000002AFAD170477047002001E001C1121F55
:10144000002AFBD1704700002DE9FF4F8BB09A4670
:101450000F460546002606E025280BD052460D997A
:1014600090476D1C761C28780028F5D10FB03046C7
:10147000BDE8F08F0024A0460122604900E004434B
:1014800015F8013F203B02FA03F00842F7D1287813
:101490002E2817D115F8010F44F004042A280ED085
:1014A0006FF02F022878A0F1300109290AD808EB43
:1014B000880102EB410100EB01086D1CF2E757F8CF
:1014C000048B6D1C287869283ED006DC0028CDD01E
:1014D00063280BD0642804D136E0732810D0752817
:1014E0004BD052460D999047761C85E017F8040BB7
:1014F0008DF8000000208DF80100E946012003E08E
:1015000057F8049B4FF0FF3061074FF0000401D4FF
:101510000AE0641C44450DDA8442FADB19F8041031
:101520000029F6D106E0641C8442FCDB19F80410A3
:101530000029F8D1264404E019F8010B52460D9910
:101540009047641EF8D257E001CF4FF00A0B0028F5
:1015500002DA40422D2102E0210504D52B218DF82D
:101560002410012103E0E10705D02021F7E70DF168
:10157000200908910CE00021F9E701CF4FF00A0B98
:10158000F9E75946FEF716FF01F1300209F8012D7F
:101590000028F6D1ADEB090000F1200B600701D463
:1015A0004FF00108D84502DDA8EB0B0000E0002059
:1015B0008046002406E009A85246005D0D99904738
:1015C000641C761C08988442F5DB04E03020524607
:1015D0000D999047761CB8F10001A8F10108F5DCDF
:1015E00005E019F8010B52460D999047761CBBF1A6
:1015F0000001ABF1010BF4DC6D1C34E7092801009C
:1016000008B501211020FFF7ADFA0820ADF8000061
:1016100004208DF8030003208DF802006946044879
:10162000FFF738F908210248FFF711FA08BD00005A
:101630000010014008B501211020FFF793FA0220A5
:10164000ADF8000010208DF8030003208DF8020093
:1016500069460448FFF71EF902210248FFF7F7F92F
:1016600008BD00000010014008B501210820FFF767
:1016700079FA0420ADF800008DF8030003208DF8FE
:10168000020069460348FFF705F904210148FFF706
:10169000DEF908BD000C014008B501210820FFF764
:1016A00061FA0220ADF8000010208DF8030003203D
:1016B0008DF8020069460448FFF7ECF80221024861
:1016C000FFF7C5F908BD0000000C014008B5012175
:1016D0001020FFF747FA4FF40040ADF80000042057
:1016E0008DF8030003208DF8020069460448FFF7D7
:1016F000D1F84FF400410248FFF7A9F908BD0000F6
:101700000010014008B501211020FFF72BFA4FF41B
:101710008040ADF8000010208DF8030003208DF804
:10172000020069460448FFF7B5F84FF480410248CB
:10173000FFF78DF908BD00000010014070B50546A7
:1017400000242846FFF7B8F900F06AFA5AE000F0E2
:1017500067FA2846FFF7B0F900F066F8002851D084
:1017600000F096F8F8B900242846FFF779F92748E1
:10177000FFF77CF82846FFF79FF900F003F90FE028
:10178000641C00F085F840B100F04AFA2846FFF7E3
:1017900067F91F48FFF76AF804E01E48FFF766F88C
:1017A000042CEDDD2EE000F09DF8F8B90024284669
:1017B000FFF756F91548FFF759F82846FFF77CF967
:1017C00000F0BCF90FE0641C00F08CF840B100F0B0
:1017D00027FA2846FFF744F90D48FFF747F804E0D9
:1017E0000C48FFF743F8042CEDDD0BE02846FFF72B
:1017F00037F90648FFF73AF8FFF78AF906A0FFF72E
:1018000003FE00E0A3E700BF70BD0000C0C62D00CE
:1018100040420F0020A1070070696768616E20696F
:1018200064696F74200A000010B50024FFF702FFFE
:10183000FFF7E6FE02211148FFF70BF91420FFF72E
:1018400015F802210D48FFF702F900BF08210B48E7
:10185000FFF7F4F80028F9D0002407E00821074832
:10186000FFF7ECF808B9012010BD641CB4F5967FB1
:10187000F4DD03A0FFF7C8FD0020F5E700100140EC
:101880006E6F20636F6C6C69736F6E0A00000000EE
:1018900010B50024FFF700FFFFF7E6FE0221104815
:1018A000FFF7D7F81420FEF7E1FF02210C48FFF7FD
:1018B000CEF800BF04210A48FFF7C0F80028F9D08D
:1018C000002407E004210648FFF7B8F808B9012012
:1018D00010BD641CB4F5487FF4DD0020F8E700007B
:1018E000000C014010B50024FFF70CFFFFF7EEFEDF
:1018F0004FF480411148FFF7ACF81420FEF7B6FF13
:101900004FF480410D48FFF7A2F800BF4FF40041AB
:101910000A48FFF793F80028F8D0002408E04FF4B5
:1019200000410648FFF78AF808B9012010BD641C81
:10193000B4F5487FF3DD0020F8E700000010014017
:1019400010B5044600BF20210448FFF7D7FC00284B
:10195000F9D00248FFF74CFD10BD000000380140EF
:1019600070B504460D46E1B20548FFF746FD00BFDD
:1019700040210348FFF7C2FC0028F9D0204670BD83
:101980000038014010B5932142F20F70FFF7D4FAEE
:1019900040F2E7310148FFF706FC10BD00040040AB
:1019A00008B501210420FFF7DDF82020ADF8000084
:1019B00004208DF8030003208DF8020069460248D8
:1019C000FEF768FF08BD00000008014088B0012054
:1019D0000290FFF743FAFFF747FCFEF707FF75E0B9
:1019E0003BA0FFF711FD03A940A0FEF7BDFB9DF84A
:1019F0000C00462809D103A93CA0FFF705FD00F023
:101A00000FF90298FFF758F860E09DF80C00522893
:101A100006D103A935A0FFF7F7FC00F08FF855E0D9
:101A20009DF80C004C2806D103A930A0FFF7ECFC70
:101A3000FFF7A8FF4AE09DF80C00532802D1FFF7FA
:101A400067F843E09DF80C00422805D100F0E8F863
:101A50000298FFF705F839E09DF80C00442813D1EF
:101A60002348FFF72BF901280AD12148C0780090BC
:101A70001F488378427801781EA0FFF7C5FC25E057
:101A800027A0FFF7C1FC21E09DF80C00412803D1FD
:101A90000298FFF753FE19E09DF80C00542803D17B
:101AA000029800F06FF811E09DF80C00432807D170
:101AB0001CA0FFF7A9FC02A91FA0FEF755FB05E03B
:101AC0009DF80C005A2801D100F0B8F888E7000012
:101AD000706C6561736520636F6D6D616E642074F9
:101AE0006865206361723A0A0000000025730000F7
:101AF000280000200D0A68756D6964697479256491
:101B00002E25642052482074656D7065726174756D
:101B100072652025642E256420430D0A0000000014
:101B20000D0A000063686F6F736520796F7572200E
:101B300073706565643A0A002564000010B593214E
:101B400042F20F70FFF7F8F940F2F3110148FFF786
:101B50002AFB10BD0004004008B501210420FFF756
:101B600001F81020ADF8000004208DF803000320D8
:101B70008DF8020069460248FEF78CFE08BD0000A1
:101B80000008014070B505460024FFF709FFFFF784
:101B9000E3FF00F045F82846FEF78EFF39E01021FC
:101BA0001D48FEF74BFF58B120211B48FEF746FFAA
:101BB00030B9FFF7C3FF42F21070FEF757FE28E07E
:101BC00010211548FEF73AFF58B920211248FEF7B8
:101BD00035FF30B1FFF7D6FE42F21070FEF746FE39
:101BE00017E010210C48FEF729FF38B120210A48E0
:101BF000FEF724FF10B100F013F80AE00748FEF7E3
:101C000035FE641C1E2C04D100F00AF8FEF780FF9C
:101C100000E0C4E700BF70BD0008014090D00300A1
:101C200010B5932142F20F70FFF786F940F2ED21D3
:101C30000148FFF7B8FA10BD0004004010B50024B9
:101C400016E04FF400610C48FEF7F8FE50B1641C3A
:101C50000AA0FFF7D9FB1E2C00DB0AE00C48FEF7B8
:101C600005FE05E00BA0FFF7CFFB0948FEF7FEFDE0
:101C7000E7E700BF10BD0000000C01407374726103
:101C80006E6765727320636F6D696E67210A00006D
:101C9000404B4C006E6F20737472616E6765720A00
:101CA00000000000DDDDDDDDDCBBBBDDDDDDDDDD1D
:101CB000DDDDDDDD98888888888888887777777784
:101CC0007788888885555556666666666666666650
:101CD00066688888833333322222222222222222FB
:101CE0002228888D041D000800000020400000000C
:101CF00028140008441D00084000002000040000D3
:101D00003814000800A24A0400000000000000008F
:101D10000102030406070809000000000102030491
:101D20000102030406070809020406080000000077
:101D300000000000000000000000000000000000A3
:041D4000000000009F
:0400000508000131BD
:00000001FF
